:02000000A62B2D
:0E000600033083120313FD00FD0B07280800D2
:0A0014000320061603200612080060
:04001E0000000800D6
:100022008312031306118611B8304E0488000A2089
:020032000800C4
:10003400831203130612061586114E0888000A203F
:020044000800B2
:100046007F30831203134E05F1007108CE00711F35
:0E0056002F2806148610312806108614080084
:100064007F30831203134E05F0007008CE00061192
:100074008611BF30F0057008CE0070177008CE00EE
:08008400700888000A20080042
:10008C00FF308316031388000F200F2083120615F0
:10009C0006128615061603200808CE0006128611D5
:1000AC000F200F208316880183124E08F0000800E1
:1000BC0083120313FB01FA01F9018030F800F10CF3
:1000CC00F00C031C72287408F90775080318750FD7
:1000DC00FA070318FB0A0310F01F7A287408FA07B2
:1000EC0075080318750FFB07FB0CFA0CF90CF80CD0
:1000FC00031C65287B08F3007A08F2007908F100EC
:06010C007808F000080075
:0E011200831203132C088A002B0882000800B9
:100120000030831203134802031CA32848087F3CB5
:10013000031CA32800304902031CA32849083F3CA4
:10014000031CA328A428F2284808CE00232049082D
:10015000CE00CE0CCE13CE0CCE13CE0CCE1311206F
:100160004808CE00322046207008CD004620700896
:10017000CD004908CE00CE0CCE13CE0CCE13CE0C43
:10018000CE1311204808CE00322007304905F00078
:100190007008CB007008F1000130F00071080319FD
:1001A000D528F00D7010FF3ECF287008CB007009E5
:1001B000CC00E3284C08CD05EF284B08CD04EF28F0
:1001C0004B08CD06EF284A08003A0319DA284A08F6
:1001D000013A0319DD284A08023A0319E0284D08BC
:0601E000CE001A20080009
:1001E6000030831203134002031CFE2840087F3CA4
:1001F600031CFE28FF282C2900303E020318042980
:10020600BE013E083F3C03180A293F30BE000030BD
:100216003F0203180F29BF013F083F3C0318152969
:100226003F30BF003E083F0203181F293E08C200A8
:100236003F08BE004208BF003E083F02031C2C29AF
:100246004008C8003E08C9004108CA009020BE0AFE
:040256001F29080054
:10025A000030831203134002031C382940083F3C34
:10026A00031C38293929662900303E0203183E2921
:10027A00BE013E087F3C031844297F30BE0000308F
:10028A003F0203184929BF013F087F3C03184F2941
:10029A007F30BF003E083F02031859293E08C200BA
:1002AA003F08BE004208BF003E083F02031C662901
:1002BA003E08C8004008C9004108CA009020BE0A8A
:0402CA0059290800A6
:1002CE00831203134008073C03186E29FA292508E8
:1002DE003E02F0002608031C013EF101F102240843
:1002EE00F400F5015E207008C6007108C7003F08D3
:1002FE00CE0032204008CE001120C2012408420256
:10030E000318D9293F087F3C03188E29FA293F0884
:10031E00CE0023204008CE0011203F08CE00322010
:10032E0046207008C30046207008C3003F08CE0068
:10033E0023204008CE0011203F08CE003220460870
:10034E002707F00028080318013E4707F100700840
:10035E00AB007108AC0089208A110A12F0007008F7
:10036E00C400C60A0319C70A7009C500C729450883
:10037E00C300D3294408C300D3294408C306D32994
:10038E004108003A0319BE294108013A0319C1294F
:10039E004108023A0319C4294308CE001A20BF0AA5
:1003AE00C20A85293F08CE0023204008CE00112026
:1003BE003F08CE003220FF30C400C501F2294408A8
:1003CE00C3004408CE001A20FA294508C300450888
:1003DE00CE001A20FA294108003A0319E6294108ED
:0803EE00013A0319EC29080093
:1003F6000030831203133406031D032A003033062C
:10040600031D0D2A2F08C8003108C9003508CA0087
:100416009020F42ABA01BB012F083102BC00300833
:10042600031C013E3202BD003308B8003408B9008F
:100436003308F0003408F100F00DF10D701070086B
:10044600B6007108B7007008033CB6007108031CBB
:10045600013EB701B7023808013EF100003003182B
:10046600013E3907F20080303B06F000803072060C
:100476007002031D402A71083A020318F42A3A084A
:100486002F07C80038083107C9003508CA00902070
:100496003A082F07C80038083102C9003508CA00D3
:1004A60090208030F00080303B067002031D5D2AEC
:1004B6003A08003C0318712A3A082F02C800380887
:1004C6003107C9003508CA0090203A082F02C80033
:1004D60038083102C9003508CA0090203B083906A1
:1004E600031D772A38083A060319B02A3808310757
:1004F600C8003C08C8023A083107C9003508CA00D6
:10050600902038083102C8003C08C8023A08310772
:10051600C9003508CA0090208030F00080303B06C4
:100526007002031D982A3A08003C0318B02A3808BE
:100536003107C8003C08C8023A083102C90035082C
:10054600CA00902038083102C8003C08C8023A08A0
:100556003102C9003508CA00902080303706F00005
:1005660080307002031DB92A003036020318D02AE3
:100576003A08F0003B08F100F00DF10D7010F00D97
:10058600F10D70100630F0070318F10A7008B6076F
:1005960071080318013EB707F02A38083A02F3003B
:1005A6003908031C013E3B02F4007308F00074088E
:1005B600F100F00DF10D7010F00DF10D70100A3014
:1005C600F0070318F10A7008B60771080318013E10
:1005D600B7070130B802031CB903BA0A0319BB0AEC
:0405E6002E2A0800B1
:1005EA0083120313B3012A08003A031D082B0530AE
:1005FA00A4000730A9005E30A7000430A80020300C
:10060A00A5000030A60033082F078400000803194C
:10061A00202B33082F0784000008BE003008BF00D3
:10062A003108C0003208C1006721240AF0007008AE
:08063A00B007B30A082B080009
:10064200831203132F08BE003108BF003008C00018
:100652003308C1002D212F08BE003108BF00320827
:10066200C0003308C1002D213008BE003208BF008F
:100672002F08C0003308C100F3203008BE00320842
:0E068200BF003108C0003308C100F32008009B
:100690008312031306108614B1013108073C031CB2
:1006A000602B3108CE001120B00130083F3C031C04
:1006B0005E2B2F08CE001A20B00A552BB10A4D2B05
:1006C00086100614B1013108073C031C762B310853
:1006D000CE001120B00130083F3C031C742B2F08C2
:0E06E000CE001A20B00A6B2BB10A632B080063
:1006EE0083120313AA0183168612061206118611AF
:1006FE000610861083128612831688018312061145
:10070E0086110610861486163F3088000A20C030E7
:10071E0088000A20061486103F3088000A20C03058
:06072E0088000A2008000B
:1007340089208A110A128000840AAB0A0319AC0AC0
:08074400F003031D9A2B0800CD
:10074C00553083120313A0004D30A1004730A20096
:10075C00A3018316031788018901860103138801FD
:10076C007723AF014823AD01AE018030F00080301B
:10077C002E067002031DC42B2D08733C031C5D2C2C
:10078C000F302D07AF002830B0004B302D07B100D3
:10079C000530B2000130B30021234C302D07AF00DF
:1007AC002830B00073302D07B1001430B200013086
:1007BC00B300212356302D07AF001E30B000693036
:1007CC002D07B1001430B2000130B30021231E30CC
:1007DC002D07AF002E080318013EB0003230B100D7
:1007EC000030B2000A30B3000030B4000130B50064
:1007FC00FB213C302D07AF002E080318013EB00042
:10080C003230B1000030B2000A30B3000030B40016
:10081C000130B500FB2164302D07AF002E08031802
:10082C00013EB0003230B1000030B2000A30B300EB
:10083C000030B4000130B500FB211E30BE00283062
:10084C00BF0060302D07C0000130C100F3205F30C5
:10085C002D07C8001930C9000130CA0090203C3067
:10086C002D07C8003230C9000130CA0090201E305C
:10087C002D07C8003230C9000130CA009020643006
:10088C002D07C8003230C9000130CA00902020303A
:10089C00AF0022302D07B0000330B1000130B200A0
:1008AC00F522AF014823AD0A0319AE0ABB2B5D2C10
:1008BC0000340034003400340034003400345F342D
:1008CC00003400340034073400340734003414345A
:1008DC007F3414347F34143424342A347F342A344F
:1008EC0012342334133408346434623436344934C7
:1008FC00553422345034003405340334003400347D
:10090C0000341C3422344134003400344134223459
:10091C001C34003408342A341C342A340834083487
:10092C0008343E3408340834003450343034003445
:10093C0000340834083408340834083400343034B3
:10094C00303400340034203410340834043402348D
:10095C003E345134493445343E34003442347F34CF
:10096C0040340034423461345134493446342134F7
:10097C00413445344B3431341834143412347F340C
:10098C001034273445344534453439343C344A34F6
:10099C004934493430340134713409340534033466
:1009AC0036344934493449343634063449344934BC
:1009BC0029341E34003436343634003400340034D8
:1009CC0056343634003400340034083414342234B1
:1009DC004134143414341434143414344134223463
:1009EC0014340834003402340134513409340634DC
:1009FC0032344934793441343E347E341134113438
:100A0C0011347E347F3449344934493436343E34DD
:100A1C0041344134413422347F3441344134223422
:100A2C001C347F3449344934493441347F340934DB
:100A3C000934013401343E344134413451343234BC
:100A4C007F340834083408347F34003441347F3424
:100A5C00413400342034403441343F3401347F3449
:100A6C0008341434223441347F344034403440341C
:100A7C0040347F340234043402347F347F34043401
:100A8C00083410347F343E344134413441343E34E4
:100A9C007F3409340934093406343E34413451343A
:100AAC0021345E347F3409341934293446344634C5
:100ABC004934493449343134013401347F340134FC
:100ACC0001343F344034403440343F341F342034FC
:100ADC00403420341F347F342034183420347F3495
:100AEC0063341434083414346334033404347834E5
:100AFC0004340334613451344934453443340034C0
:100B0C0000347F344134413402340434083410341A
:100B1C002034413441347F34003400340434023402
:100B2C0001340234043440344034403440344034D2
:100B3C00003401340234043400342034543454343A
:100B4C00543478347F34483444344434383438346E
:100B5C0044344434443420343834443444344834F5
:100B6C007F343834543454345434183408347E3488
:100B7C0009340134023408341434543454343C34BD
:100B8C007F340834043404347834003444347D34F1
:100B9C00403400342034403444343D340034003488
:100BAC007F34103428344434003441347F3440349E
:100BBC0000347C3404341834043478347C340834F1
:100BCC0004340434783438344434443444343834BD
:100BDC007C34143414341434083408341434143479
:100BEC0018347C347C3408340434043408344834E9
:100BFC00543454345434203404343F344434403466
:100C0C0020343C344034403420347C341C34203484
:100C1C00403420341C343C344034303440343C3484
:100C2C00443428341034283444340C345034503484
:100C3C0050343C344434643454344C3444340034F0
:100C4C000834363441340034003400347F340034FA
:100C5C000034003441343634083400340834083459
:100C6C002A341C34083408341C342A34083408342C
:04400E00D2230007B2
:00000001FF
